:1010000088310E28FF3FFF3F7E14883120002108E1
:101010008A0020080A0088317E10090089313329AE
:10102000AA3E553E41302000A4000030A5003D30CE
:10103000A6000230A7002330A800A9016D24883142
:101040004130A801A80ADB2688313D08C0003E08CF
:10105000BF0040082100A30020003F082100A2009B
:101060000C302000B000B101B201B3013F08A40070
:101070004008A5000A30A601A701F02788311D26E7
:101080008831BB2788314C2031082100A100200085
:1010900030082100A0000800B801B901BA01BB0165
:1010A000330832043104300403198228BC01BC0A1D
:1010B000B31B5F28B035B10DB20DB30D5728B8354D
:1010C000B90DBA0DBB0D33083702031D7128320864
:1010D0003602031D712831083502031D71283008BE
:1010E0003402031C7C283008B4023108B53B3208B6
:1010F000B63B3308B73B3814B336B20CB10CB00C66
:10110000BC0B5F283B08B3003A08B2003908B100B5
:101110003808B00008001E309D2088312100AE0044
:101120001F30AF019D2088312100B0002030B10177
:101130009D202100B200B30108002000B400B501D9
:101140003408B7003830A4000030A5003730CB2772
:101150008831C12688313830A801A80ADB268831B9
:10116000013A031DBA282E2288312000B601B60AA2
:10117000B50AD0283830A4000030A5003730A600CA
:101180005330A701A70AA800A9016D24883138307F
:10119000A801A80ADB268831013A0319B328B60151
:1011A000360BD62805303502031CA028360BD9286B
:1011B00000343708080005302000BE004130A4008C
:1011C0000030A5003E30A6001830A701A70AA800ED
:1011D000A901C12688314530A4000030A5003F3068
:1011E000A6000230A7001830A800A9016D2488319C
:1011F0000230A8004130DB2688313F080F39CA0091
:101200004008C9004A082100A30020004908210025
:10121000A20010302000B000B101B201B3014908B2
:10122000A4004A08A500890D893B8909A600A700EA
:101230006430F02788311D2688317A278831B1251E
:1012400088313108CA003008C9003F1E2B29003000
:10125000C9079C30CA3D4A082100A1002000490866
:101260002100A0000800F230840021308500FE300B
:10127000FE000130FF009131002188315530F80126
:10128000F901FA01FB01FC018400003085001B30EC
:10129000FE000030FF00913100218831A030840031
:1012A000003085004C30FE000030FF0091310021FD
:1012B000883120308400013085000C30FE00003081
:1012C000FF009131002188317E1020006729123003
:1012D000A1008F30A0002122883164002000E701A6
:1012E0002100D501D601D701D801E7012000E60190
:1012F0002200A001A101A201A3012100E60120001A
:101300000630E5012100ED008E1123000E112100B1
:101310000E1123000C1121000C110C1623000C12CD
:1013200022000C150E158B170B1764002000D3013B
:101330005308BB3E86008701530811238831810082
:1013400020001A30D30A5302031C982921000130CF
:10135000C401C301C200C1005530C700AA30C80093
:10136000EC238831640054306E2288312100BD00A6
:10137000BE013B0FC7293C0A031DC72920005408A2
:101380002100BB00BC0120005408FC23883164000C
:1013900027238831E521913170218831003A0319E2
:1013A000E32920005F18DF1DD8290A30D8238831AF
:1013B00020005F1CE1290A30BE239431AB24883120
:1013C000E329F22388316400C8292100111A08009A
:1013D0006C0A03190A2A23001F1F080013228831F0
:1013E00022002C0820002402AA0022002D08200040
:1013F000253BAB00803AAC0089302C02031D022A49
:1014000024302A02031C080022008E159431732414
:101410001116080020008E1D080023009E1C0800E5
:1014200022008E11080020001608A7001708A60049
:10143000A900A8012708A8042908A5002808A400D5
:10144000080049228831422288316A2288312E22BE
:1014500088316022883154248831312CE8302000D2
:10146000D600D5004030D7145710D901240094007D
:10147000283095009701133092002000911121002F
:101480009115080070302100990098012200960102
:101490000800043022008C0007308E003B30210011
:1014A0008C0033308E0023008E018C013F302400ED
:1014B0008C008E002100951722009E019D010800DE
:1014C000333020009C002C309B009A0191102100A9
:1014D0009114622C14302100970008002000C600EF
:1014E0003130CC228831003A0319832AB224DB3010
:1014F0002100DD000830DE00200046088600403074
:1015000087018100023464004F30CC228831003AD8
:101510000319962ABD302100DD000C30DE002000CA
:10152000460886004130870181000134640047305D
:10153000CC228831003A0319AA2A852612302100CC
:10154000DD000830DE0020004608860042308701BA
:10155000810003346400A730CC228831003A03199B
:10156000BD2A4C302100DD000D30DE008E244608FF
:10157000860043308701810005346400200046085E
:101580008600443087018100F5302100DD000F30F6
:10159000DE006524640006342000B100AC01AC0A12
:1015A0003136AD003330AE01AF003230E022883149
:1015B0003330FB2288312000330803190134003412
:1015C000B0005718F92A2430A4000130A5003008D3
:1015D000A6002C08A7002E08A9002D08A8006D243D
:1015E00088312430A4000130A5002F08A600013066
:1015F0001C2F2F08DF2FA500250886000230870149
:101600000106031D092B03306402031CFC2A9115FB
:10161000FC2AF930A4000000A40B0B2B00320000C0
:101620000800A400142B2000640023009518132B3D
:10163000200024082300910092013F3095051514E5
:101640000310151803140030093D13080800210089
:101650006D08031D08002000670803195F2B210097
:101660006708E42788312100550820005A02A800A5
:101670002100560820005B3BA900210057082000EC
:101680005C3BAA0021005808EA278831031D522B31
:1016900026082A02031D522B25082902031D522B5E
:1016A00024082802031C5F2B670B5E2B22000E15FB
:1016B00002302000E7006A2788315F2BE701200015
:1016C0000C1A752B6508031D852B660803196C2BF6
:1016D00002306606031D6F2B22000C11712B2200B5
:1016E0000C152000E501E50A852B650B852B6608A6
:1016F00003197E2B02306606031D812B22000C1578
:10170000832B22000C112000E50166080319080054
:1017100021006608E42788312200200820005A02B0
:10172000A8002200210820005B3BA900220022081B
:1017300020005C3BAA0022002308EA278831031D11
:10174000AB2B26082A02031DAB2B25082902031DFB
:10175000AB2B24082802031C0800660BBC2B650871
:101760000319B52B22000C11B72B22000C150230E7
:101770002000E60083270800E6010800A4002100FD
:101780006D08031D080020006608031D0800E6011F
:10179000E60A65080319CF2B22000C15D12B220075
:1017A0000C1120008327200024082100E6000800F7
:1017B000A40021006D08031D080020006708031D18
:1017C0000800E701E70A22000E1120006A27200026
:1017D00024082100E70008002000DE0113228831E0
:1017E0009327080020005E0B0800C4278831DE0024
:1017F0001322883193270800A7000C1A0800270835
:1018000003190800F83027020318080027082100F0
:10181000BB00BC0120002708A4000030142488313C
:1018200020000130A401142CA50023009518152CCC
:1018300020002508230091009201200024082300A5
:1018400093003F30950503108B1B03148B13151564
:1018500055309600AA3096009514151103188B1771
:101860000800210091121112083023009F009030CF
:101870009D0024309E0033309B009C012000E2013B
:10188000E301FF302100EC00F8012000E101E0015C
:10189000132225082200AD00200024082200AC00FD
:1018A0008E112100911608001130980099019701BE
:1018B0009601111021001110911311115F2C2000BD
:1018C0001814080020001C1508000E1020000E102F
:1018D00021008C1624008C1208002908AB0028086F
:1018E000AA00AA35AB0D24088600250887002A081F
:1018F000C03F2B08C13F240886002508870001301F
:10190000810441312408023EA9278831270881003B
:101910002408033EA9272608810008000A30200079
:10192000B40031309D2488318030B40038309D249B
:1019300088310830B4002D309D2CB500B600340835
:10194000B7003830A4000030A5003630A6000230C1
:10195000A7005330A800A901C12688313830A8015A
:10196000A80ADB2E0830BE003E30BF01BF0AB1001E
:101970000230B200183091310C2920004530C401EA
:10198000A4000030A5004430A6002730A701A8001D
:10199000A901C12688314930A4000030A50040309B
:1019A000A6000430A7002730A800A9016D248831C3
:1019B0004530A801A80ADB2688318230BF00DD301F
:1019C000BE00BE0BE12CBF0BE12C003220004930E1
:1019D000A801A80ADB2688314008CE004108CD00C6
:1019E000D2278831AB0020004D082100AA0020003A
:1019F0003F30B301B201B100FE30B0004D08A40089
:101A00004E08A5000330D9278831E830A8001D26EC
:101A10008831BB2788314C20883131082100A9004A
:101A2000200030082100A80020004208BF00430821
:101A3000BE003F0DBF0CBE0C3F0DBF0CBE0C3E08E0
:101A4000CD003F08CE00D2278831A30020004D08EA
:101A50002100A20020003F30B301B201B100FE30EE
:101A6000B0004D08A4004E08A5000630D9278831E3
:101A70007230A8001D2688317A278831B1253008B8
:101A8000703ECD00FE30313DCE002100A10020008F
:101A90004D082100A0000800FF30AC003230AD013D
:101AA0004226883135082100A30020003408210097
:101AB000A20034304226883135082100A7002000DA
:101AC00034082100A600363042268831350821002E
:101AD000AB00200034082100AA0023082000C20027
:101AE00021002208532788311D2688317A27883122
:101AF000B12588319B278831A100200041082100B1
:101B0000A00027082000C2002100260853278831A2
:101B10001D2688317A278831B12588319B27883165
:101B2000A500200041082100A4002B082000C200CD
:101B300021002A08532788311D2688317A278831C9
:101B4000B12588319B278831A90020004108210058
:101B5000A8002E309D208831C000B4002E303410F3
:101B60009D2CB901B31FC12DB009B109B209B30948
:101B7000B00A0319B10A0319B20A0319B30AB90169
:101B8000B90AB71FD02DB409B509B609B709B40A07
:101B90000319B50A0319B60A0319B70A0130B906C1
:101BA000BA01BB01BC01BD01330832043104300469
:101BB0000319062EB801B80AB31BE32DB035B10DD9
:101BC000B20DB30DDB2DBA35BB0DBC0DBD0D330809
:101BD0003702031DF52D32083602031DF52D31089D
:101BE0003502031DF52D30083402031C002E300889
:101BF000B4023108B53B3208B63B3308B73B3A1460
:101C0000B336B20CB10CB00CB80BE32D3908031984
:101C1000142EBA09BB09BC09BD09BA0A0319BB0ACB
:101C20000319BC0A0319BD0A3D08B3003C08B20001
:101C30003B08B1003A08B0000800AC01AD01AE01AC
:101C4000AF01241C2B2E2808AC072908AD3D2A081B
:101C5000AE3D2B08AF3DA835A90DAA0DAB0DA7369B
:101C6000A60CA50CA40C2708260425042404031D97
:101C7000212E2F08A7002E08A6002D08A5002C084D
:101C8000A40008002000B700B8013708B9003C30B4
:101C9000A4000030A5003930CB278831C126883117
:101CA0003C30A801A80ADB268831013A031D5F2ECB
:101CB0002E2288312000BB01BB0AB80A752E3C30A9
:101CC000A4000030A5003930A6000230A700533030
:101CD000A800A9016D2488313C30A801A80ADB26A0
:101CE0008831013A0319582EBB013B0B7B2E05307E
:101CF0003802031C452E3B0B802EB401B5010800B1
:101D00003A08B5003908B40008001230B701B8012C
:101D1000B80AB9003A30A4000030A5003730A22735
:101D20008831C12688313A30A801A80ADB268831DB
:101D30003E30A4000030A5003830A2278831C126EB
:101D400088313E30A801A80ADB2688314230A40041
:101D50000030A5003930A2278831C12688314230B1
:101D6000A801A80ADB2688310230B600D430B500BD
:101D70008530B400B40BBA2EB50BBA2EB60BBA2E02
:101D800008002908AB002808AA00AA35AB0D2408D2
:101D90008600250887002A08C03F2B08C13F240879
:101DA000023EB2278831270881002408033EB2276B
:101DB000260881000800B2000230B300B101152FDF
:101DC0003208A4003330A501A60028081C2788315A
:101DD0005D08B0005C08AF005B08AE005A08AD00BB
:101DE00002303306031D0D2F2D085A02A9002E08BC
:101DF0005B3BAA002F085C3BAB0030085D3BAC00AE
:101E00002C08031D0D2F2B08031D0D2F2A08031D61
:101E10000D2F3C302902031CF02E33080319172F15
:101E20000530B10A31060319172F330BE02E33307A
:101E3000FB22200033080800A7005718422F26086D
:101E40008600023087018100550A86002408C03FC1
:101E50002508C13F55088600270881005508033E24
:101E60008600260881000430D5075508EC3A031D8A
:101E70003B2FE830D500D71056085506031D472FD5
:101E80005714472F2608860087018101810A2608FA
:101E90008600023087010106031D08006408031D47
:101EA000080091154E2F2000C1006430B000B10130
:101EB000B201B3014108A4004208A500890D893B85
:101EC0008909A600A7000130AB01AA01A9002530AD
:101ED000A80008005D082100D80020005C0821004F
:101EE000D70020005B082100D60020005A082100FE
:101EF000D50008002708B7002608B6002508B50059
:101F00002408B40008005D082200A30020005C083B
:101F10002200A20020005B082200A10020005A0835
:101F20002200A000080025082100E000200024086D
:101F30002100DF0008003108C2003008C10042085B
:101F400021000800A6002330A701A70AA800A901C4
:101F50000800AA000030253DAB002A0886002B08A7
:101F600087000800AA000030253DAB002A08860043
:101F70002B08870008002708B7002608B6002508A8
:101F8000B5002408B4000800FF30DF012100D900AB
:101F9000DA0020000234A6005330A701A70AA800E7
:101FA000A9010800FF30CD053F30CE054E082100C5
:101FB0000800A601A701AB01AA01A900080086003C
:101FC00087018101810A08002000A400A501A60163
:101FD000A701080020005D3BAB0027082B0208008A
:101FE000A800A901AA01AB01080020000C0E890C71
:101FF00001392100A000A1010800FF3FFF3FFF3F82
:1020000095317B2D9531842D95318D2D9531962DE2
:1020100095319F2D9531A82D9531B12D9531BA2D42
:102020009531C32D9531CC2D9531D52D9531DE2DA2
:102030009531E32D9331202B9331442B9331732B26
:102040009331962B9331E52B9331B42B9331C82BDD
:102050009331E52B9331CD2B9331E72B9331472BE4
:102060009331602B96314A2E96314D2E9631522E59
:102070009631572E96315C2E9631612E9631662E12
:1020800096316B2E9631702E96317C2EFF3FFF3F9E
:10209000FF3FFF3FFF3FFF3FFF3FFF3FFF3FFF3F50
:1020A000FF3FFF3FFF3FFF3FFF3FFF3FFF3FFF3F40
:1020B000FF3FFF3FFF3FFF3FFF3FFF3FFF3FFF3F30
:1020C000FF3FFF3FFF3FFF3FFF3FFF3FFF3FFF3F20
:1020D000FF3FFF3FFF3FFF3FFF3FFF3FFF3FFF3F10
:1020E000FF3FFF3FFF3FFF3FFF3FFF3FFF3FFF3F00
:1020F000FF3FFF3FFF3FFF3FFF3FFF3FFF3FFF3FF0
:10210000FF3FFF3FFF3FFF3FFF3FFF3FFF3FFF3FDF
:10211000FF3FFF3FFF3FFF3FFF3FFF3FFF3FFF3FCF
:10212000FF3FFF3FFF3FFF3FFF3FFF3FFF3FFF3FBF
:10213000FF3FFF3FFF3FFF3FFF3FFF3FFF3FFF3FAF
:10214000FF3FFF3FFF3FFF3FFF3FFF3FFF3FFF3F9F
:10215000FF3FFF3FFF3FFF3FFF3FFF3FFF3FFF3F8F
:10216000FF3FFF3FFF3FFF3FFF3FFF3FFF3FFF3F7F
:10217000FF3FFF3FFF3FFF3FFF3FFF3FFF3FFF3F6F
:10218000FF3FFF3FFF3FFF3FFF3FFF3FFF3FFF3F5F
:10219000FF3FFF3FFF3FFF3FFF3FFF3FFF3FFF3F4F
:1021A000FF3FFF3FFF3FFF3FFF3FFF3FFF3FFF3F3F
:1021B000FF3FFF3FFF3FFF3FFF3FFF3FFF3FFF3F2F
:1021C000FF3FFF3FFF3FFF3FFF3FFF3FFF3FFF3F1F
:1021D000FF3FFF3FFF3FFF3FFF3FFF3FFF3FFF3F0F
:1021E000FF3FFF3FFF3FFF3FFF3FFF3FFF3FFF3FFF
:1021F000FF3FFF3FFF3FFF3FFF3FFF3FFF3FFF3FEF
:102200006400013080010131FE020030FF3B7F0895
:102210007E04031900340129BB000230BC01BD005B
:102220003D0303194B293208AC003B08AD003D309B
:10223000AE01AF003108532191315D08BA005C084E
:10224000B9005B08B8005A08B70002303D06031D0C
:10225000422937085A02B30038085B3BB4003908FA
:102260005C3BB5003A085D3BB6003608031D4229C9
:102270003508031D42293408031D42293C3033022E
:10228000031C25293D0803194B2905303C06031979
:102290004B29BC0A1029F930B3000000B30B4D29BB
:1022A000003200000800B00057186D292830A40043
:1022B0000130A5003008A6002C08A7002E08A900B0
:1022C0002D08A8008E31C1262830A4000130A500B9
:1022D0002F08A60001308F311C2F2F088F31DF2FE0
:1022E000C0292E3061229131003A031D98298A318C
:1022F0001322913121005F082000240286229131AF
:1023000087302C02031D86291F302A02031C00344B
:1023100020005F195F1A9429DE01DE0A8A31132238
:1023200091318F31932701348F31C42791311C2A89
:102330005F1D9B295F168A31132291318F319327BC
:102340000034683061229131003A03190034680882
:10235000AA00AB0121003C0820002B06031DB42974
:1023600021003B0820002A0603195F146808031D9A
:10237000BB295F14DF1468084922913103301C2AFD
:1023800020005E08003A03197129013A0319A029B7
:10239000033A0319A129CC292E3061229131003A48
:1023A000031D312A8A311322913121005F08200058
:1023B00024028622913183302C02031DE1290D3045
:1023C0002A02031C003420002E2A2E08E9002E08C1
:1023D0004922913103306906043003191C2A690629
:1023E0000319F62906306906031DF82904301C2A52
:1023F0005F1C2F2ADF155F152F2A2E08EB002E08F1
:102400004922913105301C2A2E08EA002E08492263
:10241000913106301C2A2E08ED002E0849229131F8
:1024200007301C2A2E08EC002E0849229131083072
:102430001C2A2E08EE000930DE009B292E08EF0032
:1024400021005A0820006F06031D2A2A210059087E
:1024500020006E06031D2E2A5F152F2ADF01DE01E4
:102460009B295E08033A0319E529073A0319FD2958
:10247000013A0319042A033A03190B2A013A0319F2
:10248000122A0F3A0319192A013A03191E2A2D2A72
:102490000800A4002100D90608302000A500210072
:1024A000591C592A0130DA36D90CD906A030DA067F
:1024B0005B2ADA36D90C2000A50325080319080089
:1024C0004F2A2000A6006008031900346E22A500E0
:1024D0002608860087012508810001346008031959
:1024E0006E2A2100911220006108F13E8600223000
:1024F0008701873D0108A400E10A610F802AE101FC
:10250000E00321009116200024080800AA00210001
:1025100060082000253BAB00803AAC0008000B1F90
:10252000982A2100111E982A2000111E982A0A2B91
:102530000B1FA12A2100911EA12A2000911EA12A71
:10254000D62A0B1FAA2A2100911CAA2A2000911C1E
:10255000AA2A162C0B1FB32A2100911DB32A200092
:10256000911DB32A132B0B1FBC2A2100921DBC2ADC
:102570002000921DBC2A122B0B1FC92A2100111CFE
:10258000C92A2000111CC92A210011102000111095
:1025900008000B1F08002100911F08002000911F58
:1025A00008002100911320009113080023009D1CB6
:1025B000DB2A1D121D162000600A0319F32A780871
:1025C000F13EF6002230F701F73D760886007708E5
:1025D0008700230019088100F80A780FF02AF80113
:1025E0002000E00AF52A23001908FC2271082200C5
:1025F000AD007008AC00080020001608F5001708B0
:10260000F400F300F2017508F2047308F100720897
:10261000F000080021006C0A0319102B7324080035
:1026200011120800080091112400951FEA2B951340
:102630002000E401852486008101810AFA01080056
:10264000D71808005608FA005608860087010108C6
:10265000F900560A8600403F2100DB00413FDC00C4
:1026600004302000D6075608EC3A031D392BE83019
:10267000D6005710560855060319D714240016140F
:1026800002302000E400080024009614402B2400AF
:10269000161F4E2B20000430D90AF62B7C08F200BE
:1026A0007B08F100F236F10C710891007B1C5C2B69
:1026B0000B302000E400080003302000E400080094
:1026C0002400161F672B20000430D90AF62B96141D
:1026D00006307C05F100F038FB00FC017B14210082
:1026E000E301E30A402B2100630303198D2B5B08F0
:1026F00086005C088700403FFB00413FFC005B0810
:1027000086005C08870043310108E5005B0886000D
:102710005C08870042310108E4007B082400910036
:102720007B1C5C2B05302000E40008002400161FF1
:102730009F2B2000D90A240016130530F62B210008
:10274000E403640FAB2B0430DB070318DC0AF90B3E
:10275000442B0030F62B6508860087010108240011
:1027600091002100E50A0800A630F100F10BB62B1C
:1027700000002400161FC32B20000430D90AF623C2
:10278000240016130800961508302000E400080005
:102790000830E40024009615080021006508860032
:1027A00087012400110881002100E50AE4030319D0
:1027B000DF2B2400961206302000E400E22B2400D8
:1027C000961607242400161608000030F62B063053
:1027D000D90AF62B2000640884000C300402031888
:1027E000E72B903104351A3E82000800F0002400E7
:1027F0001615852492310319042C7A08033E8600AD
:1028000001088600700881002000E40108000430FF
:102810002100DB070318DC0AF90B122C043020001E
:10282000E40008002000E401E40A080091100130EF
:10283000DA070030DB3DDC3DDD3D21006D0803198A
:1028400008006708F000F101F201F30155082000CB
:102850005A02F4002100560820005B3BF5002100DD
:10286000570820005C3BF6002100580820005D3B23
:10287000F70073087702031D472C72087602031DC8
:10288000472C71087502031D472C70087402031C45
:1028900008005D2C22000E110C1120008F316A27D8
:1028A0001930E700ED03080022000E150C154D2C21
:1028B000ED0122000E150C15080021006D08013AEB
:1028C0000319542C033A03194A2C013A0319542CC6
:1028D000073A03194A2C013A0319542C033A0319F5
:1028E0004A2C582C080020006308F23E8600213054
:1028F0008701873D010823009A002000E30A630F47
:10290000822CE3012100EC0A08007A08033E8600CD
:10291000870101080800642794316B08AA006A083F
:10292000A9006E2794316D08AA006C08A9006E27D3
:102930009431642D2000A900FF302100D900DA0075
:102940003B08732594316908803873259431290830
:1029500073259431642D2000DF1C5F1C582DDF1D72
:10296000582D01309A248B31F22B6C086D04031D15
:10297000F12CB32CF6279431031DC12C88318B2008
:10298000943121005E088A005D080A0094316427B2
:1029900094316C35732594316B08D0006A08CF00F0
:1029A000D101D2016D085202031DD82C6C085102CE
:1029B0000318ED2C5008A5004F08A4007A25943187
:1029C0002508AA002408A9006E279431CF0A03190C
:1029D000D00AD10A0319D20AD22C64259431B32C1F
:1029E000322D6B08A5006A08A4006D08A7006C08CA
:1029F000A600E8269431003A0319F02C013A031995
:102A0000C72C033A0319C12C013A0319BA2CF02C34
:102A10000C1A132D6C086D040319132D6C088B31DF
:102A2000FC239431162DDF18B32C322D2000DF1833
:102A3000B32C8B249431B32C6B08A7006A08A60032
:102A40006D08A9006C08A80093279431162D0C1A64
:102A5000172D6B08BD006A08BC006C08BE00732708
:102A60009431172D0230B22C6B08003A03193C2D1B
:102A7000033A03194D2D322D6A08C83A0319082D5F
:102A8000073A03191C2D1F3A03191C2D013A03198B
:102A90001C2D033A03191C2D322D6A08273A0319FD
:102AA000272D0F3A0319272D013A0319272D322D0F
:102AB0006908033A0319B52C073A0319B52C023AF1
:102AC0000319342DB32C0800210059086A259431CC
:102AD0005A086A2D2000A70021006C0803196C2DEC
:102AE00020002708AA2F2000A8006A252000280817
:102AF0009231492A882E21003C082000A50021009F
:102B00003B082000A400080021003E082000A5008A
:102B100021003D082000A4000800210040082000FA
:102B2000A50021003F082000A4000800210048085B
:102B30002000A500210047082000A4000800210073
:102B400044082000A500210043082000A40008003C
:102B5000210042082000A500210041082000A40017
:102B60000800210046082000A5002100450820009B
:102B7000A400080021004A082000A50021004908FF
:102B80002000A400080021004C082000A50021001E
:102B90004B082000A400080021004E082000A500DA
:102BA00021004D082000A40008002100500820004A
:102BB000A50021004F082000A40008002308A5005C
:102BC0002208A40008000130A400A500080021008C
:102BD0003D033E040319F12D02303D063E04031D62
:102BE000452E21082000A500210020082000A40077
:102BF000080021003D033E040319032E02303D0668
:102C00003E04031D452EC62F21003D033E0403193B
:102C10000E2E02303D063E04031D452EBE2F210020
:102C20003D033E040319192E02303D063E04031DE8
:102C3000452ECE2F21003D033E04031D452EEE2FD1
:102C400021003D033E04031D452EE62F21003D03D8
:102C50003E04031D452ED62F21003D033E04031DD7
:102C6000452EDE2F03304B2EFB279431031D452EBE
:102C7000C62FFB279431031D452EBE2FFB27943111
:102C8000031D452ECE2F06304B2EFF302000A40012
:102C9000A500080005302100ED2DF6279431031D15
:102CA000452EC62FF6279431031D452EBE2FF6273D
:102CB0009431031D452ECE2FF6279431031D452E4A
:102CC000EE2FF6279431031D452EE62FF62794317B
:102CD000031D452ED62FF6279431031D452EDE2FDA
:102CE000F6279431031D452E31082000A500210050
:102CF00030082000A4000800F6279431031D452E5B
:102D000033082000A500210032082000A40008009C
:102D10002508003A0319962E013A0319A32E033A07
:102D20000319CC2E013A0319DA2E452E2408383E19
:102D3000031C452E84000D3004020318452E9031EB
:102D40000435003E820024082C3A0319E72D013A8D
:102D50000319F92D033A0319042E013A03190F2E12
:102D60001F3A03191A2E013A0319202E033A0319A8
:102D7000262E013A03192C2EA33A0319322E013ABA
:102D80000319342E033A0319392E013A03193E2E42
:102D9000673A0319432E452E2408583A0319452E45
:102DA000013A0319452E033A0319452E013A031936
:102DB000452E452E2408E03E031C452E84000A3093
:102DC00004020318452E90310435323E820008007B
:102DD000A80126082407A9002708253DAA00FF30DE
:102DE000A907AA3D00302502D53003192402031893
:102DF000022F00302A02C83003192902031C022FB7
:102E0000A801A80A01302502343003192402013038
:102E10000318132F2A022C3003192902031C122F26
:102E20000230A80001302502943003192402013039
:102E30000318232F2A02903003192902031C222F82
:102E40000230A80001302502F530031924020318CE
:102E5000322F01302A02F430031929020230031CF8
:102E6000332FA800023025025C3003192402031816
:102E7000422F02302A02583003192902031C422F24
:102E80000230A800033025022A300319240203303F
:102E90000318532F2A02203003192902031C522F32
:102EA0000230A800033025022A3003192402031837
:102EB000622F03302A02273003192902031C622FD4
:102EC0000330A80028080800FF302100D900DA00EC
:102ED00020006808732594316908732D2A0873252A
:102EE00094312908732D3D08033A0319872F922F37
:102EF0003E08B4001E308C319D2C3E08B4001F30BB
:102F00008C319D2C3E08B40020308C319D2C3C0827
:102F1000273A0319782F0F3A03197D2F013A031925
:102F2000822F922F08002635703EAA0026352B3EB0
:102F3000860087012808C03F2908C13F2808A4004F
:102F40002A088C31142420002908A4002A08013EF4
:102F50008C31142CA6006208F23EA4002130A50199
:102F6000A53D240886002508870026088100E20A7E
:102F7000620FBB2FE2012100EC03080025082000AE
:102F8000A500210024082000A40008002308200038
:102F9000A500210022082000A40008002708200026
:102FA000A500210026082000A40008002D0820000C
:102FB000A50021002C082000A40008002F082000F4
:102FC000A50021002E082000A40008002B082000E6
:102FD000A50021002A082000A400080029082000DC
:102FE000A500210028082000A400080005302100C9
:102FF0003D063E040800033021003D063E04080063
:10300000FF3FFF3FFF3FFF3FFF3FFF3FFF3FFF3FD0
:10301000FF3FFF3FFF3FFF3FFF3FFF3FFF3FFF3FC0
:10302000FF3FFF3FFF3FFF3FFF3FFF3FFF3FFF3FB0
:10303000FF3FFF3FFF3FFF3FFF3FFF3FFF3FFF3FA0
:103FF000FF3FFF3FFF3FFF3FFF3FFF3FFF3F323AA3
:020000040001F9
:04000E00F4FFFFFEFE
:00000001FF
