:0400000080310E2815
:100008007E148031200021088A0020080A008031EF
:100018007E1009008031102870308400233085005C
:100028008030FE000030FF008531F9258031F9016C
:10003800FA0124308400003085002B30FE000030A7
:10004800FF008531F92580317E1020002B280130F2
:10005800A300A200DF01DE01DE0AE001E101E20106
:10006800B801B901BA01BB013B08E6003A08E5004E
:100078003908E4003808E3000530A1009630A000F4
:10008800932280318E1123000E1121000E112300BE
:100098000C1121000C110C1623000C1222000E1555
:1000A8000C150530F2000630F3008D228031BF2296
:1000B80080318B170B17C42280310C1A6928220053
:1000C8000E150C112000DF01DF0A20005F08031D58
:1000D80041294E294A0B9428903086002330870006
:1000E800AA300106031D9428913086003E3001068F
:1000F800031D94289230860055300106031D94286C
:10010800933086003E300106031D9428E030E1015B
:10011800E10AE201E20AF2001F30F300AB2180316C
:10012800200061080319C82861304A020318C6284C
:1001380022000C1520004A08F5000630F601F535B6
:10014800F60D890BA328C030F5070730F63D70304F
:10015800F7002330F800C82180314A08F50006303E
:10016800F601F535F60D890BB528E030F5070730AF
:10017800F63DB030F7002330F800C8218031220066
:100188000C11CB28E101CB28043022008C06D022A8
:100198008031A9296108031DDC280330C122803180
:1001A800620B69280830F201F300AB21803169281D
:1001B80060304A06031DD12859228031003A0319BC
:1001C800D1286008031DF72822000C110E15200005
:1001D8003B08E6003A08E5003908E4003808E3007F
:1001E800E001E00AA92963083802DA006408393B0B
:1001F800DB0065083A3BDC0066083B3BDD005D0838
:10020800031D10295C08031D10295B08031D102914
:1002180064305A02031CA929043022008C062000ED
:100228003B08E6003A08E5003908E4003808E3002E
:10023800A9296008031D242922000C150E11EB289A
:1002480063083802DA006408393BDB0065083A3B8A
:10025800DC0066083B3BDD005D08031D3D295C08AA
:10026800031D3D295B08031D3D290A305A02031C62
:10027800A929043022008E061329833117238031DF
:10028800023A03196E28013A03191D29073A03197E
:10029800CE28A9295E0B7B291030F2000830F30024
:1002A8003E228031AA3072063E3003197306031DC0
:1002B80075291130F2000830F3003E2280315530A4
:1002C80072063E3003197306031D752959228031C1
:1002D800013A031D752915230B138B138A15002862
:1002E800A9292000DE0122000E110C15132963082C
:1002F8003802DA006408393BDB0065083A3BDC0069
:1003080066083B3BDD005D08031D94295C08031D5E
:1003180094295B08031D94290C305A02031CA12957
:10032800043022008C068E0620003B08E6003A08BE
:10033800E5003908E4003808E3000C1AA92922006E
:100348000E150C112000DF01DF0A64006928003057
:100358008B1B0130F4008B13720823009100730883
:100368009200151395171516151555309600AA30D5
:10037800960095140000000023001511740C031C4E
:100388008B1303188B170800FF30D4001F30D500DB
:10039800D4067508D4057608D50500308B1B0130C6
:1003A800D300D801D701D70A55087606031DDE29E0
:1003B80054087506031D08008B137608F3007508AA
:1003C800F200AB2180312000D601570856020318ED
:1003D800352A230095171513151595162000D901F0
:1003E8007508230091007608920020005808CF0075
:1003F800D001CF35D00D4F08770786005008783DDB
:10040800870001082300930020005808CF00D0017E
:10041800CF35D00D4F08770786005008783D870004
:10042800403FD100413FD2002300940020001F30FC
:10043800D80A5906031D222A230095125530230095
:100448009600AA309600951400000000F50A0319DA
:10045800F60A20002030D90A5902031CF429D60ACA
:10046800E929230015112000530C031C8B130318D2
:100478008B17080000308B1B0130F4008B137208B7
:1004880023009100730892001513951715140000A6
:100498000000740C031C8B1303188B17230014081B
:1004A800F300F2011308F204080020000830CF011D
:1004B800D401D5005508F3005408F2003E228031DB
:1004C80073082000D3007208D200CF075308CF0763
:1004D800D40A0319D50A1F305502FF3003195402F4
:1004E800031C5E2AFF30F2001F30F3003E228031E9
:1004F80073082000D1007208D000F5015108F600F9
:100508003A3A7504031D003450084F0603190134A4
:10051800003473082000E8007208E7000800A322EE
:1005280080319C228031BB228031FF228031E32A36
:1005380070302100990098012200960108000430CB
:1005480022008C008E003B3021008C0023308E006E
:10055800033023008E008C00043024008C000C3003
:100568008E002100951322009E019D010800143081
:1005780021009700080018140800F200C3000800C2
:10058800C901C301C401CC01CD01C501B401B50144
:10059800B601B701CE0108008431A5242000C501A9
:1005A8004A08CC000330C301C30AC4003B08B700A3
:1005B8003A08B6003908B5003808B4000800210028
:1005C80091121112083023009F0090309D002430B2
:1005D8009E0033309B009C01F901FA01083020008D
:1005E800EB00C701C801C601C001C10122008E117C
:1005F80021009116080020009901F63097003C3040
:1006080096001708EA00E9011608E904111021000C
:1006180011140C30F2000630F3008D2231309800AE
:10062800080018100800A724833120004E08031D75
:10063800272B0330430603190334722B0E2583310D
:10064800272B78083A244308080078302C24833173
:10065800003A031D252B200034083802D300350842
:10066800393BD40036083A3BD50037083B3BD60027
:100678005608031D222B5508031D222B2C3053022C
:100688000130543B0318222B272B78302C2483313C
:10069800003A031D702B200034083802D3003508B7
:1006A800393BD40036083A3BD50037083B3BD600E7
:1006B8005608031D692B5508031D692B5408031D93
:1006C800692B0C305302031C272B0C258331200087
:1006D8000330C301C30AC4002000D82B4408003AE1
:1006E8000319222B013A0319292B033A0319492B21
:1006F8007D2B78302C248331003A031D162C0830CA
:10070800200044060319272B0330F701F601F500F2
:10071800E830F40063258331272B252B7808CA009D
:100728000530C72B7808CB004A084B07D300D40103
:10073800D40D530A5404031DB02B0630C301C30A59
:10074800C4003B08B7003A08B6003908B5003808B5
:10075800B400C901C201272B36258331272B49084C
:10076800703ED3002330D401D43D5308860054088A
:10077800870078088100C90A7808C20780304906CE
:10078800031D702B0730C301C30AD72B7808420614
:10079800031DB02B4A08D3004C08D302530BE12B9E
:1007A8000230C3000330C4003B08B7003A08B60063
:1007B8003908B5003808B400272B4A084C06031D31
:1007C800E82BA52483316B2B3824833120003B0888
:1007D800BF003A08BE003908BD003808BC00033025
:1007E8002000C30008306F2B3C083802D3003D08B6
:1007F800393BD4003E083A3BD5003F083B3BD60086
:100808005608031D102C5508031D102C5E3053028A
:100818000130543B031C252BCE01CE0A252B38244E
:100828008331F32B20004408033A0319912B073A2C
:100838000319922B013A0319962B033A0319B32B88
:10084800013A0319CA2B0F3A0319F82B132C080085
:10085800F4004608031900348025F3007408860064
:1008680087017308810001341830D92CF400962CC4
:1008780008302000440603194E2C0430C301C30A73
:10088800C4003B08B7003A08B6003908B500380874
:10089800B4000800382420003B08BF003A08BE0016
:1008A8003908BD003808BC000430C3000830C40053
:1008B8003B08B7003A08B6003908B5003808B40054
:1008C8000800A52483314F2CA5248331083020004B
:1008D8004406031908003B08BF003A08BE0039085F
:1008E800BD003808BC000330C3000830C4003B0812
:1008F800B7003A08B6003908B5003808B40008004F
:10090800083020004406031908000230C301C30A56
:10091800C4003B08B7003A08B6003908B5003808E3
:10092800B40008007408013A03193C2C053A03196D
:10093800652C133A0319652C0F3A0319682C842C7B
:1009480008000630D92C2100111A080008302000B0
:100958006B020318D12C23001F1F08000030200051
:1009680041020B3003194002031CCD2C22008E15C6
:100978007A082C3E86008701010823009A00FA0AAB
:1009880008307A020318FA012000EB0A2100111638
:100998000800C00A0319C10A08008E1D08002300B8
:1009A8009E1C080022008E110800F30020006B082E
:1009B8000319DA2C2100111AF62C23001F1FF42C1E
:1009C8000030200041020B3003194002031CF42CB4
:1009D80022008E15730823009A00210011160800C2
:1009E8007308FB2C7308FB24210011160800F20081
:1009F8002100111279082C3E8600870172088100B7
:100A0800F90A083079020318F9012000EB030800FD
:100A18001530D92C6430CD0A4D02031C202D03302B
:100A2800C3000830C4003B08B7003A08B6003908CC
:100A3800B5003808B40008000C2520003B08B700B2
:100A48003A08B6003908B5003808B400C301C40133
:100A5800C40A3B08B7003A08B6003908B500380898
:100A6800B40008006430C50A4502031C522D38241E
:100A780020003B08BF003A08BE003908BD0038080E
:100A8800BC000330C3000830C4003B08B7003A0874
:100A9800B6003908B5003808B40008000330440629
:100AA800031908000230C301C30AC4003B08B70099
:100AB8003A08B6003908B5003808B4000800340808
:100AC8003802CF003508393BD00036083A3BD10010
:100AD80037083B3BD20077085202031D7D2D76086C
:100AE8005102031D7D2D75085002031D7D2D7408CC
:100AF8004F02031C0800362D46080319802D4808AC
:100B0800243E860087010108F200C80A083048021E
:100B18000318C801210091122000C6032100911674
:100B2800720808000B1F08002100111E9F2D2000CD
:100B3800111E9F2DC42D2100911EA62D2000911E4F
:100B4800A62DAD2D2100111C08002000111C080045
:100B5800DA2D23009D1CB22D1D121D1620004708FA
:100B6800243E860087012300190881002000C70A57
:100B7800083047020318C701C60AC001C1010800AE
:100B880008306B020318D72D7A082C3E860087019F
:100B9800010823009A00FA0A08307A020318FA01B9
:100BA8002000EB0A080021001112080011106A0841
:100BB800F1006908F000EB2585316708680403191E
:100BC800080068088A0067080A0085310800181DAF
:100BD800F42D181071089700700896001814080072
:100BE80071089700700896000800640001308001C1
:100BF8000131FE020030FF3B7F087E0403190034F8
:100C0800FA2D0130B8070030B93DBA3DBB3D0800A8
:020C18000800D2
:1010000088310E28FF3FFF3F7E14883120002108E1
:101010008A0020080A0088317E10090089313329AE
:10102000AA3E553E41302000A4000030A5003D30CE
:10103000A6000230A7002330A800A901752488313A
:101040004130A801A80AD82688313D08C0003E08D2
:10105000BF0040082100A30020003F082100A2009B
:101060000C302000B000B101B201B3013F08A40070
:101070004008A5000A30A601A701F82788311A26E2
:101080008831C32788314C2031082100A10020007D
:1010900030082100A0000800B801B901BA01BB0165
:1010A000330832043104300403198228BC01BC0A1D
:1010B000B31B5F28B035B10DB20DB30D5728B8354D
:1010C000B90DBA0DBB0D33083702031D7128320864
:1010D0003602031D712831083502031D71283008BE
:1010E0003402031C7C283008B4023108B53B3208B6
:1010F000B63B3308B73B3814B336B20CB10CB00C66
:10110000BC0B5F283B08B3003A08B2003908B100B5
:101110003808B00008001E309D2088312100AE0044
:101120001F30AF019D2088312100B0002030B10177
:101130009D202100B200B30108002000B400B501D9
:101140003408B7003830A4000030A5003730D3276A
:101150008831BE2688313830A801A80AD8268831BF
:10116000013A031DBA28362288312000B601B60A9A
:10117000B50AD0283830A4000030A5003730A600CA
:101180005330A701A70AA800A90175248831383077
:10119000A801A80AD8268831013A0319B328B60154
:1011A000360BD62805303502031CA028360BD9286B
:1011B00000343708080005302000BE004130A4008C
:1011C0000030A5003E30A6001830A701A70AA800ED
:1011D000A901BE2688314530A4000030A5003F306B
:1011E000A6000230A7001830A800A9017524883194
:1011F0000230A8004130D82688313F080F39CA0094
:101200004008C9004A082100A30020004908210025
:10121000A20010302000B000B101B201B3014908B2
:10122000A4004A08A500890D893B8909A600A700EA
:101230006430F82788311A26883182278831AE2514
:1012400088313108CA003008C9003F1E2B29003000
:10125000C9079C30CA3D4A082100A1002000490866
:101260002100A0000800F230840021308500FE300B
:10127000FE000130FF009031EC2088315530F8013C
:10128000F901FA01FB01FC018400003085001B30EC
:10129000FE000030FF009031EC208831A030840047
:1012A000003085004C30FE000030FF009031EC2013
:1012B000883120308400013085000C30FE00003081
:1012C000FF009031EC2088317E1020006729123019
:1012D000A1007D30A0002922883164002000E701B0
:1012E0002100D501D601D701D801E7012000E60190
:1012F0002200A001A101A201A3012100E60120001A
:101300000630E5012100ED008E1123000E112100B1
:101310000E1123000C1121000C110C1623000C12CD
:1013200022000C150E158B170B1764002000D3013B
:101330005308BB3E8600870153081923883181007A
:1013400020001A30D30A5302031C982921000130CF
:10135000C401C301C200C1005530C700AA30C80093
:10136000F423883164005430762288312100BD0096
:10137000BE013B0FC7293C0A031DC72920005408A2
:101380002100BB00BC012000540804248831640003
:101390002F238831ED2191315C218831003A0319E6
:1013A000EB2920005F1CD6295F1AD829DF1DDB2915
:1013B0000A30E023883120005F1CE929DF1DDF1A95
:1013C000E5295F1AE5290A30C6239431882488313B
:1013D000EB29FA2388316400C8292100111A08007A
:1013E0006C0A0319122A23001F1F08001B228831D0
:1013F00022002C0820002402AA0022002D08200030
:10140000253BAB00803AAC0089302C02031D0A2A30
:1014100024302A02031C080022008E159431612416
:101420001116080020008E1D080023009E1C0800D5
:1014300022008E11080020001608A7001708A60039
:10144000A900A8012708A8042908A5002808A400C5
:101450000800512288314A2288317222883136228E
:101460008831682288315C248831392CE8302000AA
:10147000D600D5004030D7145710D901240094006D
:10148000283095009701133092002000911121001F
:1014900091150800703021009900980122009601F2
:1014A0000800043022008C0007308E003B30210001
:1014B0008C0033308E0023008E018C013F302400DD
:1014C0008C008E002100951722009E019D010800CE
:1014D000333020009C002C309B009A019110210099
:1014E00091146A2C14302100970008002000C600D7
:1014F0003130D4228831003A03198B2A5027DB304F
:101500002100DD000830DE00200046088600403063
:1015100087018100023464004F30D4228831003AC0
:1015200003199E2ABA302100DD000C30DE002000B5
:10153000460886004130870181000134640047304D
:10154000D4228831003A0319B22A822612302100AF
:10155000DD000830DE0020004608860042308701AA
:10156000810003346400A730D4228831003A031983
:10157000C52A49302100DD000D30DE0096244608E2
:10158000860043308701810005346400200046084E
:101590008600443087018100E4302100DD001030F6
:1015A000DE006D24640006342000B100AC01AC0AFA
:1015B0003136AD003330AE01AF003230E822883131
:1015C00033300323883120003308031901340034F9
:1015D000B0005718012B2430A4000130A5003008BA
:1015E000A6002C08A7002E08A9002D08A800752425
:1015F00088312430A4000130A5002F08A600013056
:10160000192F2F08E72FA500250886000230870133
:101610000106031D112B03306402031C042B9115DA
:10162000042BF930A4000000A40B132B003200009F
:101630000800A4001C2B20006400230095181B2B1D
:10164000200024082300910092013F3095051514D5
:101650000310151803140030093D13080800210079
:101660006D08031D0800200067080319672B21007F
:101670006708EC2788312100550820005A02A8008D
:101680002100560820005B3BA900210057082000DC
:101690005C3BAA0021005808F2278831031D5A2B11
:1016A00026082A02031D5A2B25082902031D5A2B3E
:1016B00024082802031C672B670B662B22000E15DB
:1016C00002302000E70072278831672BE7012000F5
:1016D0000C1A7D2B6508031D8D2B66080319742BCE
:1016E00002306606031D772B22000C11792B220095
:1016F0000C152000E501E50A8D2B650B8D2B660886
:101700000319862B02306606031D892B22000C1557
:101710008B2B22000C112000E5016608031908003C
:1017200021006608EC2788312200200820005A0298
:10173000A8002200210820005B3BA900220022080B
:1017400020005C3BAA0022002308F2278831031DF9
:10175000B32B26082A02031DB32B25082902031DDB
:10176000B32B24082802031C0800660BC42B650851
:101770000319BD2B22000C11BF2B22000C150230C7
:101780002000E6008B270800E6010800A4002100E5
:101790006D08031D080020006608031D0800E6010F
:1017A000E60A65080319D72B22000C15D92B220055
:1017B0000C1120008B27200024082100E6000800DF
:1017C000A40021006D08031D080020006708031D08
:1017D0000800E701E70A22000E112000722720000E
:1017E00024082100E70008002000DE011B228831C8
:1017F0009B27080020005E0B0800CC278831DE0004
:101800001B2288319B270800A7000C1A0800270814
:1018100003190800F83027020318080027082100E0
:10182000BB00BC0120002708A40000301C24883124
:1018300020000130A4011C2CA500230095181D2CAC
:101840002000250823009100920120002408230095
:1018500093003F30950503108B1B03148B13151554
:1018600055309600AA3096009514151103188B1761
:101870000800210091121112083023009F009030BF
:101880009D0024309E0033309B009C012000E2012B
:10189000E301FF302100EC00F8012000E101E0014C
:1018A0001B2225082200AD00200024082200AC00E5
:1018B0008E112100911608001130980099019701AE
:1018C000960111102100111091131111672C2000A5
:1018D0001814080020001C1508000E1020000E101F
:1018E00021008C1624008C1208002908AB0028085F
:1018F000AA00AA35AB0D24088600250887002A080F
:10190000C03F2B08C13F240886002508870001300E
:10191000810441312408023EB12788312708810023
:101920002408033EB1272608810008000A30200061
:10193000B4003130A52488318030B4003830A5247B
:1019400088310830B4002D30A52CB500B60034081D
:10195000B7003830A4000030A5003630A6000230B1
:10196000A7005330A800A901BE2688313830A8014D
:10197000A80AD82E20004530C401A4000030A500DC
:101980004430A6002730A701A800A901BE2688314F
:101990004930A4000030A5004030A6000430A70064
:1019A0002730A800A901752488314530A801A80A6C
:1019B000D82688318230BF00DD30BE00BE0BDE2C61
:1019C000BF0BDE2C003220004930A801A80AD8261F
:1019D00088314008CE004108CD00DA278831AB00BD
:1019E00020004D082100AA0020003F30B301B201C1
:1019F000B100FE30B0004D08A4004E08A500033031
:101A0000E1278831E830A8001A268831C3278831B9
:101A10004C20883131082100A90020003008210025
:101A2000A80020004208BF004308BE003F0DBF0CC5
:101A3000BE0C3F0DBF0CBE0C3E08CD003F08CE00D3
:101A4000DA278831A30020004D082100A2002000E1
:101A50003F30B301B201B100FE30B0004D08A40028
:101A60004E08A5000630E12788317230A8001A26FA
:101A7000883182278831AE253008703ECD00FE3097
:101A8000313DCE002100A10020004D082100A00022
:101A90000800FF30AC003230AD013F2688313508F8
:101AA0002100A300200034082100A20034303F268A
:101AB000883135082100A700200034082100A60045
:101AC00036303F26883135082100AB00200034082D
:101AD0002100AA0023082000C200210022085B2761
:101AE00088311A26883182278831AE258831A3278C
:101AF0008831A100200041082100A0002708200013
:101B0000C200210026085B2788311A2688318227E7
:101B10008831AE258831A3278831A50020004108EF
:101B20002100A4002B082000C20021002A085B2706
:101B300088311A26883182278831AE258831A3273B
:101B40008831A900200041082100A8002E309D20E6
:101B50008831C000B4002E303410A52CB901B31F59
:101B6000BE2DB009B109B209B309B00A0319B10A0F
:101B70000319B20A0319B30AB901B90AB71FCD2D67
:101B8000B409B509B609B709B40A0319B50A0319A6
:101B9000B60A0319B70A0130B906BA01BB01BC0184
:101BA000BD0133083204310430040319032EB80197
:101BB000B80AB31BE02DB035B10DB20DB30DD82D61
:101BC000BA35BB0DBC0DBD0D33083702031DF22D18
:101BD00032083602031DF22D31083502031DF22DA5
:101BE00030083402031CFD2D3008B4023108B53B27
:101BF0003208B63B3308B73B3A14B336B20CB10CDB
:101C0000B00CB80BE02D39080319112EBA09BB0925
:101C1000BC09BD09BA0A0319BB0A0319BC0A031996
:101C2000BD0A3D08B3003C08B2003B08B1003A08C9
:101C3000B0000800AC01AD01AE01AF01241C282E9C
:101C40002808AC072908AD3D2A08AE3D2B08AF3D5A
:101C5000A835A90DAA0DAB0DA736A60CA50CA40C92
:101C60002708260425042404031D1E2E2F08A70080
:101C70002E08A6002D08A5002C08A40008002000AE
:101C8000B700B8013708B9003C30A4000030A50007
:101C90003930D3278831BE2688313C30A801A80AC4
:101CA000D8268831013A031D5C2E36228831200067
:101CB000BB01BB0AB80A722E3C30A4000030A5005C
:101CC0003930A6000230A7005330A800A9017524BE
:101CD00088313C30A801A80AD8268831013A031976
:101CE000552EBB013B0B782E05303802031C422ECB
:101CF0003B0B7D2EB401B50108003A08B500390848
:101D0000B40008001230B701B801B80AB9003A307F
:101D1000A4000030A5003730AA278831BE268831BC
:101D20003A30A801A80AD82688313E30A4000030F5
:101D3000A5003830AA278831BE2688313E30A80158
:101D4000A80AD82688314230A4000030A5003930D6
:101D5000AA278831BE2688314230A801A80AD82691
:101D600088310230B600D430B5008530B400B40BF1
:101D7000B72EB50BB72EB60BB72E08002908AB004F
:101D80002808AA00AA35AB0D24088600250887007C
:101D90002A08C03F2B08C13F2408023EBA278831D9
:101DA000270881002408033EBA272608810008007E
:101DB000B2000230B300B101122F3208A400333058
:101DC000A501A6002808192788315D08B0005C0825
:101DD000AF005B08AE005A08AD0002303306031DA9
:101DE0000A2F2D085A02A9002E085B3BAA002F08D3
:101DF0005C3BAB0030085D3BAC002C08031D0A2F98
:101E00002B08031D0A2F2A08031D0A2F3C30290224
:101E1000031CED2E33080319142F0530B10A3106C7
:101E20000319142F330BDD2E333003232000330826
:101E30000800A70057183F2F2608860002308701A8
:101E40008100550A86002408C03F2508C13F550877
:101E50008600270881005508033E86002608810079
:101E60000430D5075508EC3A031D382FE830D5006B
:101E7000D71056085506031D442F5714442F260823
:101E8000860087018101810A2608860002308701C9
:101E90000106031D08006408031D080091154B2F5F
:101EA0000830BE003E30BF01BF0AB1000230B200B0
:101EB00018309031F8282000C1006430B000B10122
:101EC000B201B3014108A4004208A500890D893B75
:101ED0008909A600A7000130AB01AA01A90025309D
:101EE000A80008005D082100D80020005C0821003F
:101EF000D70020005B082100D60020005A082100EE
:101F0000D50008002708B7002608B6002508B50048
:101F10002408B40008005D082200A30020005C082B
:101F20002200A20020005B082200A10020005A0825
:101F30002200A000080025082100E000200024085D
:101F40002100DF0008003108C2003008C10042084B
:101F500021000800A6002330A701A70AA800A901B4
:101F60000800AA000030253DAB002A0886002B0897
:101F700087000800AA000030253DAB002A08860033
:101F80002B08870008002708B7002608B600250898
:101F9000B5002408B4000800FF30DF012100D9009B
:101FA000DA0020000234A6005330A701A70AA800D7
:101FB000A9010800FF30CD053F30CE054E082100B5
:101FC0000800A601A701AB01AA01A900080086002C
:101FD00087018101810A08002000A400A501A60153
:101FE000A701080020005D3BAB0027082B0208007A
:101FF000A800A901AA01AB010800FF3FFF3FFF3F76
:1020000095317B2D9531842D95318D2D9531962DE2
:1020100095319F2D9531A82D9531B12D9531BA2D42
:102020009531C32D9531CC2D9531D52D9531DE2DA2
:102030009531E32D93310E2B9331322B9331612B5C
:102040009331842B9331D32B9331A22B9331B62B25
:102050009331D32B9331BB2B9331D52B9331352B2C
:1020600093314E2B96314A2E96314D2E9631522E6B
:102070009631572E96315C2E9631612E9631662E12
:1020800096316B2E9631702E96317C2EFF3FFF3F9E
:10209000FF3FFF3FFF3FFF3FFF3FFF3FFF3FFF3F50
:1020A000FF3FFF3FFF3FFF3FFF3FFF3FFF3FFF3F40
:1020B000FF3FFF3FFF3FFF3FFF3FFF3FFF3FFF3F30
:1020C000FF3FFF3FFF3FFF3FFF3FFF3FFF3FFF3F20
:1020D000FF3FFF3FFF3FFF3FFF3FFF3FFF3FFF3F10
:1020E000FF3FFF3FFF3FFF3FFF3FFF3FFF3FFF3F00
:1020F000FF3FFF3FFF3FFF3FFF3FFF3FFF3FFF3FF0
:10210000FF3FFF3FFF3FFF3FFF3FFF3FFF3FFF3FDF
:10211000FF3FFF3FFF3FFF3FFF3FFF3FFF3FFF3FCF
:10212000FF3FFF3FFF3FFF3FFF3FFF3FFF3FFF3FBF
:10213000FF3FFF3FFF3FFF3FFF3FFF3FFF3FFF3FAF
:10214000FF3FFF3FFF3FFF3FFF3FFF3FFF3FFF3F9F
:10215000FF3FFF3FFF3FFF3FFF3FFF3FFF3FFF3F8F
:10216000FF3FFF3FFF3FFF3FFF3FFF3FFF3FFF3F7F
:10217000FF3FFF3FFF3FFF3FFF3FFF3FFF3FFF3F6F
:10218000FF3FFF3FFF3FFF3FFF3FFF3FFF3FFF3F5F
:10219000FF3FFF3FFF3FFF3FFF3FFF3FFF3FFF3F4F
:1021A000FF3FFF3FFF3FFF3FFF3FFF3FFF3FFF3F3F
:1021B000FF3FFF3FFF3FFF3FFF3FFF3FFF3FFF3F2F
:1021C000FF3FFF3FFF3FFF3F20000C0E890C01390E
:1021D0002100A000A101080064000130800101314C
:1021E000FE020030FF3B7F087E0403190034ED2817
:1021F000BB000230BC01BD003D0303193729320882
:10220000AC003B08AD003D30AE01AF0031083F21CE
:1022100090315D08BA005C08B9005B08B8005A0844
:10222000B70002303D06031D2E2937085A02B300BD
:1022300038085B3BB40039085C3BB5003A085D3BAD
:10224000B6003608031D2E293508031D2E29340833
:10225000031D2E293C303302031C11293D080319AC
:10226000372905303C0603193729BC0AFC28F93008
:10227000B3000000B30B3929003200000800B000A1
:10228000571859292830A4000130A5003008A600AD
:102290002C08A7002E08A9002D08A8008E31BE2604
:1022A0002830A4000130A5002F08A60001308F318E
:1022B000192F2F088F31E72FAD292E304F22913162
:1022C000003A031D84298A311B22913121005F08C5
:1022D000200024027422913187302C02031D7229C0
:1022E0001F302A02031C003420005F19DF1A8029E6
:1022F000DE01DE0A8A311B2291318F319B270134A6
:102300008F31CC279131092A5F195F1A8829DF168E
:102310008A311B2291318F319B27003468304F2244
:102320009131003A031900346808AA00AB0121007A
:102330003C0820002B06031DA12921003B0820009A
:102340002A0603195F146808031DA8295F14DF1407
:102350006808372291310330092A20005E08003ACC
:1023600003195D29013A03198D29033A03198E29AE
:10237000B9292E304F229131003A031D1F2A8A318C
:102380001B22913121005F08200024027422913128
:1023900083302C02031DCE290D302A02031C003489
:1023A0002000DF011A2A2E08E9002E083722913179
:1023B0000330690604300319092A69060319E42960
:1023C00006306906031DE6290430092A5F1C1A2A13
:1023D0005F16192A2E08EB002E083722913105309E
:1023E000092A2E08EA002E08372291310630092AE0
:1023F0002E08ED002E08372291310730092A2E08C9
:10240000EC002E08372291310830092A2E08EE0000
:102410000930DE0088292E08EF0021005A0820002C
:102420006F06031D172A2100590820006E06031DA0
:102430001C2A5F15DE0188295F15DF151A2A5E0840
:10244000033A0319D329073A0319EA29013A031970
:10245000F129033A0319F829013A0319FF290F3A20
:102460000319062A013A03190B2A1A2A0800A400A4
:102470002100D90608302000A5002100591C472A58
:102480000130DA36D90CD906A030DA06492ADA3614
:10249000D90C2000A5032508031908003D2A2000B7
:1024A000A6006008031900345C22A50026088600F7
:1024B0008701250881000134600803195C2A210086
:1024C000911220006108F13E860022308701873D8D
:1024D0000108A400E10A610F6E2AE101E003210076
:1024E0009116200024080800AA002100600820009E
:1024F000253BAB00803AAC0008000B1F862A210068
:10250000111E862A2000111E862AF82A0B1F8F2AE8
:102510002100911E8F2A2000911E8F2AC42A0B1F92
:10252000982A2100911C982A2000911C982A042C9A
:102530000B1FA12A2100911DA12A2000911DA12A73
:10254000012B0B1FAA2A2100921DAA2A2000921DEE
:10255000AA2A002B0B1FB72A2100111CB72A200022
:10256000111CB72A210011102000111008000B1FA8
:1025700008002100911F08002000911F0800210081
:10258000911320009113080023009D1CC92A1D12DD
:102590001D162000600A0319E12A7808F13EF600B2
:1025A0002230F701F73D7608860077088700230080
:1025B00019088100F80A780FDE2AF8012000E00AE5
:1025C000E32A23001908EA2271082200AD007008EE
:1025D000AC00080020001608F5001708F400F3000E
:1025E000F2017508F2047308F1007208F0000800A7
:1025F00021006C0A0319FE2A612408001112080048
:10260000080091112400951FD82B95132000E40198
:10261000732486008101810AFA010800D718080096
:102620005608FA005608860087010108F900560A84
:102630008600403F2100DB00413FDC0004302000E9
:10264000D6075608EC3A031D272BE830D600571062
:10265000560855060319D71424001614023020001A
:10266000E4000800240096142E2B2400161F3C2B97
:1026700020000430D90AE42B7C08F2007B08F1002A
:10268000F236F10C710891007B1C4A2B0B302000B4
:10269000E400080003302000E40008002400161FB6
:1026A000552B20000430D90AE42B961406307C0503
:1026B000F100F038FB00FC017B142100E301E30A88
:1026C0002E2B2100630303197B2B5B0886005C081B
:1026D0008700403FFB00413FFC005B0886005C0830
:1026E000870043310108E5005B0886005C0887002D
:1026F00042310108E4007B08240091007B1C4A2B36
:1027000005302000E40008002400161F8D2B200057
:10271000D90A240016130530E42B2100E403640FCA
:10272000992B0430DB070318DC0AF90B322B00303D
:10273000E42B650886008701010824009100210030
:10274000E50A0800A630F100F10BA42B00002400DC
:10275000161FB12B20000430D90AE42324001613DD
:102760000800961508302000E40008000830E40056
:1027700024009615080021006508860087012400C2
:10278000110881002100E50AE4030319CD2B240080
:10279000961206302000E400D02B24009616F52374
:1027A0002400161608000030E42B0630D90AE42B6A
:1027B0002000640884000C3004020318D52B9031EB
:1027C00004351A3E82000800F00024001615732418
:1027D00092310319F22B7A08033E86000108860025
:1027E000700881002000E401080004302100DB07AC
:1027F0000318DC0AF90B002C04302000E400080068
:102800002000E401E40A080091100130DA070030EA
:10281000DB3DDC3DDD3D21006D0803190800670844
:10282000F000F101F201F301550820005A02F40012
:102830002100560820005B3BF500210057082000CE
:102840005C3BF6002100580820005D3BF700730850
:102850007702031D352C72087602031D352C710892
:102860007502031D352C70087402031C08004B2CE4
:1028700022000E110C1120008F3172271930E70051
:10288000ED03080022000E150C153B2CED01220073
:102890000E150C15080021006D08013A0319422C91
:1028A000033A0319382C013A0319422C073A031949
:1028B000382C013A0319422C033A0319382C462CC0
:1028C000080020006308F23E860021308701873D22
:1028D000010823009A002000E30A630F702CE30133
:1028E0002100EC0A08007A08033E860087010108EF
:1028F0000800642794316B08AA006A08A9006E27B3
:1029000094316D08AA006C08A9006E2794316B2DD4
:102910002000DF1D8D2C8B31FA2BDF1C5F1C472D17
:102920005F1E472D0130532594318B2C6C086D04AC
:10293000031DD52C8B2CF6279431031DA22C883136
:102940008B20943121005E088A005D080A009431D2
:10295000642794316C35642594316B08D0006A0883
:10296000CF00D101D2016D085202031DB92C6C08B1
:1029700051020318CE2C5008A5004F08A4007A2558
:1029800094312508AA002408A9006E279431CF0AA3
:102990000319D00AD10A0319D20AB32C6B2594313A
:1029A0008B2C0230532594318B2C6B08A5006A08C0
:1029B000A4006D08A7006C08A600E8269431003A30
:1029C0000319D12C013A0319A82C033A0319A22C9C
:1029D000013A03199B2CD12C0C1AFD2C6C086D04A8
:1029E0000319F72C6C088C3104249431032DDF1863
:1029F0008B2C0230532594318B2CDF188B2C02301A
:102A0000532594318B2C2000DF188B2C79249431A2
:102A10008B2C6B08A7006A08A6006D08A9006C083B
:102A2000A80093279431032D0C1A042D6B08BD00C8
:102A30006A08BC006C08BE0073279431042D023074
:102A4000532594318B2C6B08003A03192B2D033A34
:102A500003193C2D1F2D6A08C83A0319EC2C073ABC
:102A60000319092D1F3A0319092D013A0319092DDC
:102A7000033A0319092D1F2D6A08273A0319142D4B
:102A80000F3A0319142D013A0319142D1F2D69084B
:102A9000033A0319962C073A0319962C023A0319A4
:102AA000232D8B2C08002000A900FF302100D90025
:102AB000DA003B0864259431690880386425943134
:102AC0002908642594316B2D2000A8007125200071
:102AD00028089231372A21005908712594315A0863
:102AE000712D2000A70021006C080319732D200010
:102AF0002708AA2F882E21003C082000A5002100CD
:102B00003B082000A400080021003E082000A5008A
:102B100021003D082000A4000800210040082000FA
:102B2000A50021003F082000A4000800210048085B
:102B30002000A500210047082000A4000800210073
:102B400044082000A500210043082000A40008003C
:102B5000210042082000A500210041082000A40017
:102B60000800210046082000A5002100450820009B
:102B7000A400080021004A082000A50021004908FF
:102B80002000A400080021004C082000A50021001E
:102B90004B082000A400080021004E082000A500DA
:102BA00021004D082000A40008002100500820004A
:102BB000A50021004F082000A40008002308A5005C
:102BC0002208A40008000130A400A500080021008C
:102BD0003D033E040319F12D02303D063E04031D62
:102BE000452E21082000A500210020082000A40077
:102BF000080021003D033E040319032E02303D0668
:102C00003E04031D452EC62F21003D033E0403193B
:102C10000E2E02303D063E04031D452EBE2F210020
:102C20003D033E040319192E02303D063E04031DE8
:102C3000452ECE2F21003D033E04031D452EEE2FD1
:102C400021003D033E04031D452EE62F21003D03D8
:102C50003E04031D452ED62F21003D033E04031DD7
:102C6000452EDE2F03304B2EFB279431031D452EBE
:102C7000C62FFB279431031D452EBE2FFB27943111
:102C8000031D452ECE2F06304B2EFF302000A40012
:102C9000A500080005302100ED2DF6279431031D15
:102CA000452EC62FF6279431031D452EBE2FF6273D
:102CB0009431031D452ECE2FF6279431031D452E4A
:102CC000EE2FF6279431031D452EE62FF62794317B
:102CD000031D452ED62FF6279431031D452EDE2FDA
:102CE000F6279431031D452E31082000A500210050
:102CF00030082000A4000800F6279431031D452E5B
:102D000033082000A500210032082000A40008009C
:102D10002508003A0319962E013A0319A32E033A07
:102D20000319CC2E013A0319DA2E452E2408383E19
:102D3000031C452E84000D3004020318452E9031EB
:102D40000435003E820024082C3A0319E72D013A8D
:102D50000319F92D033A0319042E013A03190F2E12
:102D60001F3A03191A2E013A0319202E033A0319A8
:102D7000262E013A03192C2EA33A0319322E013ABA
:102D80000319342E033A0319392E013A03193E2E42
:102D9000673A0319432E452E2408583A0319452E45
:102DA000013A0319452E033A0319452E013A031936
:102DB000452E452E2408E03E031C452E84000A3093
:102DC00004020318452E90310435323E820008007B
:102DD000A80126082407A9002708253DAA00FF30DE
:102DE000A907AA3D00302502D53003192402031893
:102DF000022F00302A02C83003192902031C022FB7
:102E0000A801A80A01302502343003192402013038
:102E10000318132F2A022C3003192902031C122F26
:102E20000230A80001302502943003192402013039
:102E30000318232F2A02903003192902031C222F82
:102E40000230A80001302502F530031924020318CE
:102E5000322F01302A02F430031929020230031CF8
:102E6000332FA800023025025C3003192402031816
:102E7000422F02302A02583003192902031C422F24
:102E80000230A800033025022A300319240203303F
:102E90000318532F2A02203003192902031C522F32
:102EA0000230A800033025022A3003192402031837
:102EB000622F03302A02273003192902031C622FD4
:102EC0000330A80028080800FF302100D900DA00EC
:102ED00020006808642594316908642D2A08642557
:102EE00094312908642D3D08033A0319872F922F46
:102EF0003E08B4001E308C31A52C3E08B4001F30B3
:102F00008C31A52C3E08B40020308C31A52C3C0817
:102F1000273A0319782F0F3A03197D2F013A031925
:102F2000822F922F08002635703EAA0026352B3EB0
:102F3000860087012808C03F2908C13F2808A4004F
:102F40002A088C311C2420002908A4002A08013EEC
:102F50008C311C2CA6006208F23EA4002130A50191
:102F6000A53D240886002508870026088100E20A7E
:102F7000620FBB2FE2012100EC03080025082000AE
:102F8000A500210024082000A40008002308200038
:102F9000A500210022082000A40008002708200026
:102FA000A500210026082000A40008002D0820000C
:102FB000A50021002C082000A40008002F082000F4
:102FC000A50021002E082000A40008002B082000E6
:102FD000A50021002A082000A400080029082000DC
:102FE000A500210028082000A400080005302100C9
:102FF0003D063E040800033021003D063E04080063
:10300000FF3FFF3FFF3FFF3FFF3FFF3FFF3FFF3FD0
:10301000FF3FFF3FFF3FFF3FFF3FFF3FFF3FFF3FC0
:10302000FF3FFF3FFF3FFF3FFF3FFF3FFF3FFF3FB0
:10303000FF3FFF3FFF3FFF3FFF3FFF3FFF3FFF3FA0
:103FF000FF3FFF3FFF3FFF3FFF3FFF3FFF3F113AC4
:020000040001F9
:04000E00F4FFFFFEFE
:00000001FF
